{
    "_format": "hh-sol-artifact-1",
    "contractName": "MerkleNftV2",
    "sourceName": "contracts/MerkleNftV2.sol",
    "abi": [
        {
            "inputs": [],
            "stateMutability": "nonpayable",
            "type": "constructor"
        },
        {
            "anonymous": false,
            "inputs": [
                {
                    "indexed": true,
                    "internalType": "address",
                    "name": "owner",
                    "type": "address"
                },
                {
                    "indexed": true,
                    "internalType": "address",
                    "name": "approved",
                    "type": "address"
                },
                {
                    "indexed": true,
                    "internalType": "uint256",
                    "name": "tokenId",
                    "type": "uint256"
                }
            ],
            "name": "Approval",
            "type": "event"
        },
        {
            "anonymous": false,
            "inputs": [
                {
                    "indexed": true,
                    "internalType": "address",
                    "name": "owner",
                    "type": "address"
                },
                {
                    "indexed": true,
                    "internalType": "address",
                    "name": "operator",
                    "type": "address"
                },
                {
                    "indexed": false,
                    "internalType": "bool",
                    "name": "approved",
                    "type": "bool"
                }
            ],
            "name": "ApprovalForAll",
            "type": "event"
        },
        {
            "anonymous": false,
            "inputs": [
                {
                    "indexed": true,
                    "internalType": "address",
                    "name": "from",
                    "type": "address"
                },
                {
                    "indexed": true,
                    "internalType": "address",
                    "name": "to",
                    "type": "address"
                },
                {
                    "indexed": true,
                    "internalType": "uint256",
                    "name": "tokenId",
                    "type": "uint256"
                }
            ],
            "name": "Transfer",
            "type": "event"
        },
        {
            "inputs": [
                {
                    "internalType": "address",
                    "name": "to",
                    "type": "address"
                },
                {
                    "internalType": "uint256",
                    "name": "tokenId",
                    "type": "uint256"
                }
            ],
            "name": "approve",
            "outputs": [],
            "stateMutability": "nonpayable",
            "type": "function"
        },
        {
            "inputs": [
                {
                    "internalType": "address",
                    "name": "owner",
                    "type": "address"
                }
            ],
            "name": "balanceOf",
            "outputs": [
                {
                    "internalType": "uint256",
                    "name": "",
                    "type": "uint256"
                }
            ],
            "stateMutability": "view",
            "type": "function"
        },
        {
            "inputs": [
                {
                    "internalType": "uint256",
                    "name": "tokenId",
                    "type": "uint256"
                }
            ],
            "name": "getApproved",
            "outputs": [
                {
                    "internalType": "address",
                    "name": "",
                    "type": "address"
                }
            ],
            "stateMutability": "view",
            "type": "function"
        },
        {
            "inputs": [
                {
                    "internalType": "address",
                    "name": "owner",
                    "type": "address"
                },
                {
                    "internalType": "address",
                    "name": "operator",
                    "type": "address"
                }
            ],
            "name": "isApprovedForAll",
            "outputs": [
                {
                    "internalType": "bool",
                    "name": "",
                    "type": "bool"
                }
            ],
            "stateMutability": "view",
            "type": "function"
        },
        {
            "inputs": [
                {
                    "internalType": "uint256",
                    "name": "",
                    "type": "uint256"
                }
            ],
            "name": "merkleLeaves",
            "outputs": [
                {
                    "internalType": "bytes32",
                    "name": "",
                    "type": "bytes32"
                }
            ],
            "stateMutability": "view",
            "type": "function"
        },
        {
            "inputs": [],
            "name": "merkleRoot",
            "outputs": [
                {
                    "internalType": "bytes32",
                    "name": "",
                    "type": "bytes32"
                }
            ],
            "stateMutability": "view",
            "type": "function"
        },
        {
            "inputs": [
                {
                    "internalType": "address",
                    "name": "to",
                    "type": "address"
                },
                {
                    "internalType": "string",
                    "name": "description",
                    "type": "string"
                }
            ],
            "name": "mint",
            "outputs": [
                {
                    "internalType": "uint256",
                    "name": "",
                    "type": "uint256"
                }
            ],
            "stateMutability": "nonpayable",
            "type": "function"
        },
        {
            "inputs": [],
            "name": "name",
            "outputs": [
                {
                    "internalType": "string",
                    "name": "",
                    "type": "string"
                }
            ],
            "stateMutability": "view",
            "type": "function"
        },
        {
            "inputs": [
                {
                    "internalType": "uint8",
                    "name": "",
                    "type": "uint8"
                }
            ],
            "name": "nextLeftSiblings",
            "outputs": [
                {
                    "internalType": "bytes32",
                    "name": "",
                    "type": "bytes32"
                }
            ],
            "stateMutability": "view",
            "type": "function"
        },
        {
            "inputs": [
                {
                    "internalType": "uint256",
                    "name": "tokenId",
                    "type": "uint256"
                }
            ],
            "name": "ownerOf",
            "outputs": [
                {
                    "internalType": "address",
                    "name": "",
                    "type": "address"
                }
            ],
            "stateMutability": "view",
            "type": "function"
        },
        {
            "inputs": [
                {
                    "internalType": "address",
                    "name": "from",
                    "type": "address"
                },
                {
                    "internalType": "address",
                    "name": "to",
                    "type": "address"
                },
                {
                    "internalType": "uint256",
                    "name": "tokenId",
                    "type": "uint256"
                }
            ],
            "name": "safeTransferFrom",
            "outputs": [],
            "stateMutability": "nonpayable",
            "type": "function"
        },
        {
            "inputs": [
                {
                    "internalType": "address",
                    "name": "from",
                    "type": "address"
                },
                {
                    "internalType": "address",
                    "name": "to",
                    "type": "address"
                },
                {
                    "internalType": "uint256",
                    "name": "tokenId",
                    "type": "uint256"
                },
                {
                    "internalType": "bytes",
                    "name": "_data",
                    "type": "bytes"
                }
            ],
            "name": "safeTransferFrom",
            "outputs": [],
            "stateMutability": "nonpayable",
            "type": "function"
        },
        {
            "inputs": [
                {
                    "internalType": "address",
                    "name": "operator",
                    "type": "address"
                },
                {
                    "internalType": "bool",
                    "name": "approved",
                    "type": "bool"
                }
            ],
            "name": "setApprovalForAll",
            "outputs": [],
            "stateMutability": "nonpayable",
            "type": "function"
        },
        {
            "inputs": [
                {
                    "internalType": "bytes4",
                    "name": "interfaceId",
                    "type": "bytes4"
                }
            ],
            "name": "supportsInterface",
            "outputs": [
                {
                    "internalType": "bool",
                    "name": "",
                    "type": "bool"
                }
            ],
            "stateMutability": "view",
            "type": "function"
        },
        {
            "inputs": [],
            "name": "symbol",
            "outputs": [
                {
                    "internalType": "string",
                    "name": "",
                    "type": "string"
                }
            ],
            "stateMutability": "view",
            "type": "function"
        },
        {
            "inputs": [
                {
                    "internalType": "uint256",
                    "name": "tokenId",
                    "type": "uint256"
                }
            ],
            "name": "tokenURI",
            "outputs": [
                {
                    "internalType": "string",
                    "name": "",
                    "type": "string"
                }
            ],
            "stateMutability": "view",
            "type": "function"
        },
        {
            "inputs": [
                {
                    "internalType": "address",
                    "name": "from",
                    "type": "address"
                },
                {
                    "internalType": "address",
                    "name": "to",
                    "type": "address"
                },
                {
                    "internalType": "uint256",
                    "name": "tokenId",
                    "type": "uint256"
                }
            ],
            "name": "transferFrom",
            "outputs": [],
            "stateMutability": "nonpayable",
            "type": "function"
        }
    ],
    "bytecode": "0x60806040523480156200001157600080fd5b506040518060400160405280600b81526020017f4d65726b6c654e667456320000000000000000000000000000000000000000008152506040518060400160405280600481526020017f4d4b4c3200000000000000000000000000000000000000000000000000000000815250816000908051906020019062000096929190620000b8565b508060019080519060200190620000af929190620000b8565b505050620001cd565b828054620000c69062000168565b90600052602060002090601f016020900481019282620000ea576000855562000136565b82601f106200010557805160ff191683800117855562000136565b8280016001018555821562000136579182015b828111156200013557825182559160200191906001019062000118565b5b50905062000145919062000149565b5090565b5b80821115620001645760008160009055506001016200014a565b5090565b600060028204905060018216806200018157607f821691505b602082108114156200019857620001976200019e565b5b50919050565b7f4e487b7100000000000000000000000000000000000000000000000000000000600052602260045260246000fd5b61352880620001dd6000396000f3fe608060405234801561001057600080fd5b506004361061010b5760003560e01c806370a08231116100a2578063aa451b4d11610071578063aa451b4d146102ca578063b88d4fde146102fa578063c87b56dd14610316578063d0def52114610346578063e985e9c5146103765761010b565b806370a08231146102305780638c5530461461026057806395d89b4114610290578063a22cb465146102ae5761010b565b806323b872dd116100de57806323b872dd146101aa5780632eb4a7ab146101c657806342842e0e146101e45780636352211e146102005761010b565b806301ffc9a71461011057806306fdde0314610140578063081812fc1461015e578063095ea7b31461018e575b600080fd5b61012a6004803603810190610125919061208c565b6103a6565b6040516101379190612781565b60405180910390f35b610148610488565b60405161015591906127b7565b60405180910390f35b610178600480360381019061017391906120de565b61051a565b604051610185919061271a565b60405180910390f35b6101a860048036038101906101a39190612050565b61059f565b005b6101c460048036038101906101bf9190611ef6565b6106b7565b005b6101ce610717565b6040516101db919061279c565b60405180910390f35b6101fe60048036038101906101f99190611ef6565b61071d565b005b61021a600480360381019061021591906120de565b61073d565b604051610227919061271a565b60405180910390f35b61024a60048036038101906102459190611e91565b6107ef565b60405161025791906129f9565b60405180910390f35b61027a600480360381019061027591906120de565b6108a7565b604051610287919061279c565b60405180910390f35b6102986108cb565b6040516102a591906127b7565b60405180910390f35b6102c860048036038101906102c39190611fc0565b61095d565b005b6102e460048036038101906102df9190612107565b610973565b6040516102f1919061279c565b60405180910390f35b610314600480360381019061030f9190611f45565b61098b565b005b610330600480360381019061032b91906120de565b6109ed565b60405161033d91906127b7565b60405180910390f35b610360600480360381019061035b9190611ffc565b610a94565b60405161036d91906129f9565b60405180910390f35b610390600480360381019061038b9190611eba565b610b46565b60405161039d9190612781565b60405180910390f35b60007f80ac58cd000000000000000000000000000000000000000000000000000000007bffffffffffffffffffffffffffffffffffffffffffffffffffffffff1916827bffffffffffffffffffffffffffffffffffffffffffffffffffffffff1916148061047157507f5b5e139f000000000000000000000000000000000000000000000000000000007bffffffffffffffffffffffffffffffffffffffffffffffffffffffff1916827bffffffffffffffffffffffffffffffffffffffffffffffffffffffff1916145b80610481575061048082610bda565b5b9050919050565b60606000805461049790612cd5565b80601f01602080910402602001604051908101604052809291908181526020018280546104c390612cd5565b80156105105780601f106104e557610100808354040283529160200191610510565b820191906000526020600020905b8154815290600101906020018083116104f357829003601f168201915b5050505050905090565b600061052582610c44565b610564576040517f08c379a000000000000000000000000000000000000000000000000000000000815260040161055b90612939565b60405180910390fd5b6004600083815260200190815260200160002060009054906101000a900473ffffffffffffffffffffffffffffffffffffffff169050919050565b60006105aa8261073d565b90508073ffffffffffffffffffffffffffffffffffffffff168373ffffffffffffffffffffffffffffffffffffffff16141561061b576040517f08c379a0000000000000000000000000000000000000000000000000000000008152600401610612906129b9565b60405180910390fd5b8073ffffffffffffffffffffffffffffffffffffffff1661063a610cb0565b73ffffffffffffffffffffffffffffffffffffffff161480610669575061066881610663610cb0565b610b46565b5b6106a8576040517f08c379a000000000000000000000000000000000000000000000000000000000815260040161069f906128b9565b60405180910390fd5b6106b28383610cb8565b505050565b6106c86106c2610cb0565b82610d71565b610707576040517f08c379a00000000000000000000000000000000000000000000000000000000081526004016106fe906129d9565b60405180910390fd5b610712838383610e4f565b505050565b60085481565b6107388383836040518060200160405280600081525061098b565b505050565b6000806002600084815260200190815260200160002060009054906101000a900473ffffffffffffffffffffffffffffffffffffffff169050600073ffffffffffffffffffffffffffffffffffffffff168173ffffffffffffffffffffffffffffffffffffffff1614156107e6576040517f08c379a00000000000000000000000000000000000000000000000000000000081526004016107dd906128f9565b60405180910390fd5b80915050919050565b60008073ffffffffffffffffffffffffffffffffffffffff168273ffffffffffffffffffffffffffffffffffffffff161415610860576040517f08c379a0000000000000000000000000000000000000000000000000000000008152600401610857906128d9565b60405180910390fd5b600360008373ffffffffffffffffffffffffffffffffffffffff1673ffffffffffffffffffffffffffffffffffffffff168152602001908152602001600020549050919050565b600981815481106108b757600080fd5b906000526020600020016000915090505481565b6060600180546108da90612cd5565b80601f016020809104026020016040519081016040528092919081815260200182805461090690612cd5565b80156109535780601f1061092857610100808354040283529160200191610953565b820191906000526020600020905b81548152906001019060200180831161093657829003601f168201915b5050505050905090565b61096f610968610cb0565b83836110b6565b5050565b600a6020528060005260406000206000915090505481565b61099c610996610cb0565b83610d71565b6109db576040517f08c379a00000000000000000000000000000000000000000000000000000000081526004016109d2906129d9565b60405180910390fd5b6109e784848484611223565b50505050565b60606109f882610c44565b610a37576040517f08c379a0000000000000000000000000000000000000000000000000000000008152600401610a2e90612959565b60405180910390fd5b6000610a4161127f565b90506000815111610a615760405180602001604052806000815250610a8c565b80610a6b84611296565b604051602001610a7c92919061266e565b6040516020818303038152906040525b915050919050565b6000610aa06006611443565b6000610aac6006611459565b9050610ab88482611467565b610ac181610c44565b610b00576040517f08c379a0000000000000000000000000000000000000000000000000000000008152600401610af790612979565b60405180910390fd5b610b0a8184611641565b600760008381526020019081526020016000209080519060200190610b30929190611ca0565b50610b3c8133866116a2565b8091505092915050565b6000600560008473ffffffffffffffffffffffffffffffffffffffff1673ffffffffffffffffffffffffffffffffffffffff16815260200190815260200160002060008373ffffffffffffffffffffffffffffffffffffffff1673ffffffffffffffffffffffffffffffffffffffff16815260200190815260200160002060009054906101000a900460ff16905092915050565b60007f01ffc9a7000000000000000000000000000000000000000000000000000000007bffffffffffffffffffffffffffffffffffffffffffffffffffffffff1916827bffffffffffffffffffffffffffffffffffffffffffffffffffffffff1916149050919050565b60008073ffffffffffffffffffffffffffffffffffffffff166002600084815260200190815260200160002060009054906101000a900473ffffffffffffffffffffffffffffffffffffffff1673ffffffffffffffffffffffffffffffffffffffff1614159050919050565b600033905090565b816004600083815260200190815260200160002060006101000a81548173ffffffffffffffffffffffffffffffffffffffff021916908373ffffffffffffffffffffffffffffffffffffffff160217905550808273ffffffffffffffffffffffffffffffffffffffff16610d2b8361073d565b73ffffffffffffffffffffffffffffffffffffffff167f8c5be1e5ebec7d5bd14f71427d1e84f3dd0314c0f7b2291e5b200ac8c7c3b92560405160405180910390a45050565b6000610d7c82610c44565b610dbb576040517f08c379a0000000000000000000000000000000000000000000000000000000008152600401610db290612899565b60405180910390fd5b6000610dc68361073d565b90508073ffffffffffffffffffffffffffffffffffffffff168473ffffffffffffffffffffffffffffffffffffffff161480610e3557508373ffffffffffffffffffffffffffffffffffffffff16610e1d8461051a565b73ffffffffffffffffffffffffffffffffffffffff16145b80610e465750610e458185610b46565b5b91505092915050565b8273ffffffffffffffffffffffffffffffffffffffff16610e6f8261073d565b73ffffffffffffffffffffffffffffffffffffffff1614610ec5576040517f08c379a0000000000000000000000000000000000000000000000000000000008152600401610ebc906127f9565b60405180910390fd5b600073ffffffffffffffffffffffffffffffffffffffff168273ffffffffffffffffffffffffffffffffffffffff161415610f35576040517f08c379a0000000000000000000000000000000000000000000000000000000008152600401610f2c90612859565b60405180910390fd5b610f4083838361173c565b610f4b600082610cb8565b6001600360008573ffffffffffffffffffffffffffffffffffffffff1673ffffffffffffffffffffffffffffffffffffffff1681526020019081526020016000206000828254610f9b9190612bd4565b925050819055506001600360008473ffffffffffffffffffffffffffffffffffffffff1673ffffffffffffffffffffffffffffffffffffffff1681526020019081526020016000206000828254610ff29190612af3565b92505081905550816002600083815260200190815260200160002060006101000a81548173ffffffffffffffffffffffffffffffffffffffff021916908373ffffffffffffffffffffffffffffffffffffffff160217905550808273ffffffffffffffffffffffffffffffffffffffff168473ffffffffffffffffffffffffffffffffffffffff167fddf252ad1be2c89b69c2b068fc378daa952ba7f163c4a11628f55a4df523b3ef60405160405180910390a46110b1838383611741565b505050565b8173ffffffffffffffffffffffffffffffffffffffff168373ffffffffffffffffffffffffffffffffffffffff161415611125576040517f08c379a000000000000000000000000000000000000000000000000000000000815260040161111c90612879565b60405180910390fd5b80600560008573ffffffffffffffffffffffffffffffffffffffff1673ffffffffffffffffffffffffffffffffffffffff16815260200190815260200160002060008473ffffffffffffffffffffffffffffffffffffffff1673ffffffffffffffffffffffffffffffffffffffff16815260200190815260200160002060006101000a81548160ff0219169083151502179055508173ffffffffffffffffffffffffffffffffffffffff168373ffffffffffffffffffffffffffffffffffffffff167f17307eab39ab6107e8899845ad3d59bd9653f200f220920489ca2b5937696c31836040516112169190612781565b60405180910390a3505050565b61122e848484610e4f565b61123a84848484611746565b611279576040517f08c379a0000000000000000000000000000000000000000000000000000000008152600401611270906127d9565b60405180910390fd5b50505050565b606060405180602001604052806000815250905090565b606060008214156112de576040518060400160405280600181526020017f3000000000000000000000000000000000000000000000000000000000000000815250905061143e565b600082905060005b600082146113105780806112f990612d38565b915050600a826113099190612b49565b91506112e6565b60008167ffffffffffffffff811115611352577f4e487b7100000000000000000000000000000000000000000000000000000000600052604160045260246000fd5b6040519080825280601f01601f1916602001820160405280156113845781602001600182028036833780820191505090505b5090505b600085146114375760018261139d9190612bd4565b9150600a856113ac9190612de3565b60306113b89190612af3565b60f81b8183815181106113f4577f4e487b7100000000000000000000000000000000000000000000000000000000600052603260045260246000fd5b60200101907effffffffffffffffffffffffffffffffffffffffffffffffffffffffffffff1916908160001a905350600a856114309190612b49565b9450611388565b8093505050505b919050565b6001816000016000828254019250508190555050565b600081600001549050919050565b600073ffffffffffffffffffffffffffffffffffffffff168273ffffffffffffffffffffffffffffffffffffffff1614156114d7576040517f08c379a00000000000000000000000000000000000000000000000000000000081526004016114ce90612919565b60405180910390fd5b6114e081610c44565b15611520576040517f08c379a000000000000000000000000000000000000000000000000000000000815260040161151790612819565b60405180910390fd5b61152c6000838361173c565b6001600360008473ffffffffffffffffffffffffffffffffffffffff1673ffffffffffffffffffffffffffffffffffffffff168152602001908152602001600020600082825461157c9190612af3565b92505081905550816002600083815260200190815260200160002060006101000a81548173ffffffffffffffffffffffffffffffffffffffff021916908373ffffffffffffffffffffffffffffffffffffffff160217905550808273ffffffffffffffffffffffffffffffffffffffff16600073ffffffffffffffffffffffffffffffffffffffff167fddf252ad1be2c89b69c2b068fc378daa952ba7f163c4a11628f55a4df523b3ef60405160405180910390a461163d60008383611741565b5050565b6060600061164e84611296565b83604051602001611660929190612692565b604051602081830303815290604052905061167a816118dd565b60405160200161168a91906126f8565b60405160208183030381529060405291505092915050565b6009805490508310156116ea576040517f08c379a00000000000000000000000000000000000000000000000000000000081526004016116e190612999565b60405180910390fd5b60008282856007600088815260200190815260200160002060405160200161171594939291906125f8565b60405160208183030381529060405280519060200120905061173681611a67565b50505050565b505050565b505050565b60006117678473ffffffffffffffffffffffffffffffffffffffff16611bc9565b156118d0578373ffffffffffffffffffffffffffffffffffffffff1663150b7a02611790610cb0565b8786866040518563ffffffff1660e01b81526004016117b29493929190612735565b602060405180830381600087803b1580156117cc57600080fd5b505af19250505080156117fd57506040513d601f19601f820116820180604052508101906117fa91906120b5565b60015b611880573d806000811461182d576040519150601f19603f3d011682016040523d82523d6000602084013e611832565b606091505b50600081511415611878576040517f08c379a000000000000000000000000000000000000000000000000000000000815260040161186f906127d9565b60405180910390fd5b805181602001fd5b63150b7a0260e01b7bffffffffffffffffffffffffffffffffffffffffffffffffffffffff1916817bffffffffffffffffffffffffffffffffffffffffffffffffffffffff1916149150506118d5565b600190505b949350505050565b606060008251141561190057604051806020016040528060008152509050611a62565b60006040518060600160405280604081526020016134b3604091399050600060036002855161192f9190612af3565b6119399190612b49565b60046119459190612b7a565b67ffffffffffffffff811115611984577f4e487b7100000000000000000000000000000000000000000000000000000000600052604160045260246000fd5b6040519080825280601f01601f1916602001820160405280156119b65781602001600182028036833780820191505090505b509050600182016020820185865187015b80821015611a22576003820191508151603f8160121c168501518453600184019350603f81600c1c168501518453600184019350603f8160061c168501518453600184019350603f81168501518453600184019350506119c7565b5050600386510660018114611a3e5760028114611a5157611a59565b603d6001830353603d6002830353611a59565b603d60018303535b50505080925050505b919050565b600981908060018154018082558091505060019003906000526020600020016000909190919091505560006001600980549050611aa49190612bd4565b90506000600182611ab59190612af3565b905060008084905060005b6000851115611b9057611aed85600a60008660ff1660ff1681526020019081526020016000205484611bec565b9050838514611b5c57600284611b039190612b49565b600286611b109190612b49565b1415611b395781600a60008560ff1660ff16815260200190815260200160002081905550611b5b565b6000801b600a60008560ff1660ff168152602001908152602001600020819055505b5b600285611b699190612b49565b9450600284611b789190612b49565b93508280611b8590612d81565b935050809150611ac0565b816008819055506000841115611bc157600854600a60008560ff1660ff168152602001908152602001600020819055505b505050505050565b6000808273ffffffffffffffffffffffffffffffffffffffff163b119050919050565b600080600285611bfc9190612de3565b1415611c1357611c0c8283611c6d565b9050611c66565b6000801b831415611c59576040517f08c379a0000000000000000000000000000000000000000000000000000000008152600401611c5090612839565b60405180910390fd5b611c638383611c6d565b90505b9392505050565b60008282604051602001611c82929190612642565b60405160208183030381529060405280519060200120905092915050565b828054611cac90612cd5565b90600052602060002090601f016020900481019282611cce5760008555611d15565b82601f10611ce757805160ff1916838001178555611d15565b82800160010185558215611d15579182015b82811115611d14578251825591602001919060010190611cf9565b5b509050611d229190611d26565b5090565b5b80821115611d3f576000816000905550600101611d27565b5090565b6000611d56611d5184612a39565b612a14565b905082815260208101848484011115611d6e57600080fd5b611d79848285612c93565b509392505050565b6000611d94611d8f84612a6a565b612a14565b905082815260208101848484011115611dac57600080fd5b611db7848285612c93565b509392505050565b600081359050611dce8161343f565b92915050565b600081359050611de381613456565b92915050565b600081359050611df88161346d565b92915050565b600081519050611e0d8161346d565b92915050565b600082601f830112611e2457600080fd5b8135611e34848260208601611d43565b91505092915050565b600082601f830112611e4e57600080fd5b8135611e5e848260208601611d81565b91505092915050565b600081359050611e7681613484565b92915050565b600081359050611e8b8161349b565b92915050565b600060208284031215611ea357600080fd5b6000611eb184828501611dbf565b91505092915050565b60008060408385031215611ecd57600080fd5b6000611edb85828601611dbf565b9250506020611eec85828601611dbf565b9150509250929050565b600080600060608486031215611f0b57600080fd5b6000611f1986828701611dbf565b9350506020611f2a86828701611dbf565b9250506040611f3b86828701611e67565b9150509250925092565b60008060008060808587031215611f5b57600080fd5b6000611f6987828801611dbf565b9450506020611f7a87828801611dbf565b9350506040611f8b87828801611e67565b925050606085013567ffffffffffffffff811115611fa857600080fd5b611fb487828801611e13565b91505092959194509250565b60008060408385031215611fd357600080fd5b6000611fe185828601611dbf565b9250506020611ff285828601611dd4565b9150509250929050565b6000806040838503121561200f57600080fd5b600061201d85828601611dbf565b925050602083013567ffffffffffffffff81111561203a57600080fd5b61204685828601611e3d565b9150509250929050565b6000806040838503121561206357600080fd5b600061207185828601611dbf565b925050602061208285828601611e67565b9150509250929050565b60006020828403121561209e57600080fd5b60006120ac84828501611de9565b91505092915050565b6000602082840312156120c757600080fd5b60006120d584828501611dfe565b91505092915050565b6000602082840312156120f057600080fd5b60006120fe84828501611e67565b91505092915050565b60006020828403121561211957600080fd5b600061212784828501611e7c565b91505092915050565b61213981612c08565b82525050565b61215061214b82612c08565b612dab565b82525050565b61215f81612c1a565b82525050565b61216e81612c26565b82525050565b61218561218082612c26565b612dbd565b82525050565b600061219682612ab0565b6121a08185612ac6565b93506121b0818560208601612ca2565b6121b981612ed0565b840191505092915050565b60006121cf82612abb565b6121d98185612ad7565b93506121e9818560208601612ca2565b6121f281612ed0565b840191505092915050565b600061220882612abb565b6122128185612ae8565b9350612222818560208601612ca2565b80840191505092915050565b6000815461223b81612cd5565b6122458186612ae8565b945060018216600081146122605760018114612271576122a4565b60ff198316865281860193506122a4565b61227a85612a9b565b60005b8381101561229c5781548189015260018201915060208101905061227d565b838801955050505b50505092915050565b60006122ba603283612ad7565b91506122c582612eee565b604082019050919050565b60006122dd602583612ad7565b91506122e882612f3d565b604082019050919050565b6000612300601c83612ad7565b915061230b82612f8c565b602082019050919050565b6000612323601283612ad7565b915061232e82612fb5565b602082019050919050565b6000612346602483612ad7565b915061235182612fde565b604082019050919050565b6000612369601983612ad7565b91506123748261302d565b602082019050919050565b600061238c602c83612ad7565b915061239782613056565b604082019050919050565b60006123af601083612ae8565b91506123ba826130a5565b601082019050919050565b60006123d2603883612ad7565b91506123dd826130ce565b604082019050919050565b60006123f5600183612ae8565b91506124008261311d565b600182019050919050565b6000612418602a83612ad7565b915061242382613146565b604082019050919050565b600061243b602983612ad7565b915061244682613195565b604082019050919050565b600061245e602083612ad7565b9150612469826131e4565b602082019050919050565b6000612481600183612ae8565b915061248c8261320d565b600182019050919050565b60006124a4602c83612ad7565b91506124af82613236565b604082019050919050565b60006124c7601383612ae8565b91506124d282613285565b601382019050919050565b60006124ea602f83612ad7565b91506124f5826132ae565b604082019050919050565b600061250d600183612ae8565b9150612518826132fd565b600182019050919050565b6000612530601c83612ad7565b915061253b82613326565b602082019050919050565b6000612553601a83612ad7565b915061255e8261334f565b602082019050919050565b6000612576602183612ad7565b915061258182613378565b604082019050919050565b6000612599601d83612ae8565b91506125a4826133c7565b601d82019050919050565b60006125bc603183612ad7565b91506125c7826133f0565b604082019050919050565b6125db81612c7c565b82525050565b6125f26125ed82612c7c565b612dd9565b82525050565b6000612604828761213f565b601482019150612614828661213f565b60148201915061262482856125e1565b602082019150612634828461222e565b915081905095945050505050565b600061264e8285612174565b60208201915061265e8284612174565b6020820191508190509392505050565b600061267a82856121fd565b915061268682846121fd565b91508190509392505050565b600061269d82612500565b91506126a8826124ba565b91506126b482856121fd565b91506126bf826123e8565b91506126ca826123a2565b91506126d682846121fd565b91506126e1826123e8565b91506126ec82612474565b91508190509392505050565b60006127038261258c565b915061270f82846121fd565b915081905092915050565b600060208201905061272f6000830184612130565b92915050565b600060808201905061274a6000830187612130565b6127576020830186612130565b61276460408301856125d2565b8181036060830152612776818461218b565b905095945050505050565b60006020820190506127966000830184612156565b92915050565b60006020820190506127b16000830184612165565b92915050565b600060208201905081810360008301526127d181846121c4565b905092915050565b600060208201905081810360008301526127f2816122ad565b9050919050565b60006020820190508181036000830152612812816122d0565b9050919050565b60006020820190508181036000830152612832816122f3565b9050919050565b6000602082019050818103600083015261285281612316565b9050919050565b6000602082019050818103600083015261287281612339565b9050919050565b600060208201905081810360008301526128928161235c565b9050919050565b600060208201905081810360008301526128b28161237f565b9050919050565b600060208201905081810360008301526128d2816123c5565b9050919050565b600060208201905081810360008301526128f28161240b565b9050919050565b600060208201905081810360008301526129128161242e565b9050919050565b6000602082019050818103600083015261293281612451565b9050919050565b6000602082019050818103600083015261295281612497565b9050919050565b60006020820190508181036000830152612972816124dd565b9050919050565b6000602082019050818103600083015261299281612523565b9050919050565b600060208201905081810360008301526129b281612546565b9050919050565b600060208201905081810360008301526129d281612569565b9050919050565b600060208201905081810360008301526129f2816125af565b9050919050565b6000602082019050612a0e60008301846125d2565b92915050565b6000612a1e612a2f565b9050612a2a8282612d07565b919050565b6000604051905090565b600067ffffffffffffffff821115612a5457612a53612ea1565b5b612a5d82612ed0565b9050602081019050919050565b600067ffffffffffffffff821115612a8557612a84612ea1565b5b612a8e82612ed0565b9050602081019050919050565b60008190508160005260206000209050919050565b600081519050919050565b600081519050919050565b600082825260208201905092915050565b600082825260208201905092915050565b600081905092915050565b6000612afe82612c7c565b9150612b0983612c7c565b9250827fffffffffffffffffffffffffffffffffffffffffffffffffffffffffffffffff03821115612b3e57612b3d612e14565b5b828201905092915050565b6000612b5482612c7c565b9150612b5f83612c7c565b925082612b6f57612b6e612e43565b5b828204905092915050565b6000612b8582612c7c565b9150612b9083612c7c565b9250817fffffffffffffffffffffffffffffffffffffffffffffffffffffffffffffffff0483118215151615612bc957612bc8612e14565b5b828202905092915050565b6000612bdf82612c7c565b9150612bea83612c7c565b925082821015612bfd57612bfc612e14565b5b828203905092915050565b6000612c1382612c5c565b9050919050565b60008115159050919050565b6000819050919050565b60007fffffffff0000000000000000000000000000000000000000000000000000000082169050919050565b600073ffffffffffffffffffffffffffffffffffffffff82169050919050565b6000819050919050565b600060ff82169050919050565b82818337600083830152505050565b60005b83811015612cc0578082015181840152602081019050612ca5565b83811115612ccf576000848401525b50505050565b60006002820490506001821680612ced57607f821691505b60208210811415612d0157612d00612e72565b5b50919050565b612d1082612ed0565b810181811067ffffffffffffffff82111715612d2f57612d2e612ea1565b5b80604052505050565b6000612d4382612c7c565b91507fffffffffffffffffffffffffffffffffffffffffffffffffffffffffffffffff821415612d7657612d75612e14565b5b600182019050919050565b6000612d8c82612c86565b915060ff821415612da057612d9f612e14565b5b600182019050919050565b6000612db682612dc7565b9050919050565b6000819050919050565b6000612dd282612ee1565b9050919050565b6000819050919050565b6000612dee82612c7c565b9150612df983612c7c565b925082612e0957612e08612e43565b5b828206905092915050565b7f4e487b7100000000000000000000000000000000000000000000000000000000600052601160045260246000fd5b7f4e487b7100000000000000000000000000000000000000000000000000000000600052601260045260246000fd5b7f4e487b7100000000000000000000000000000000000000000000000000000000600052602260045260246000fd5b7f4e487b7100000000000000000000000000000000000000000000000000000000600052604160045260246000fd5b6000601f19601f8301169050919050565b60008160601b9050919050565b7f4552433732313a207472616e7366657220746f206e6f6e20455243373231526560008201527f63656976657220696d706c656d656e7465720000000000000000000000000000602082015250565b7f4552433732313a207472616e736665722066726f6d20696e636f72726563742060008201527f6f776e6572000000000000000000000000000000000000000000000000000000602082015250565b7f4552433732313a20746f6b656e20616c7265616479206d696e74656400000000600082015250565b7f4c656674207369626c696e672069732030210000000000000000000000000000600082015250565b7f4552433732313a207472616e7366657220746f20746865207a65726f2061646460008201527f7265737300000000000000000000000000000000000000000000000000000000602082015250565b7f4552433732313a20617070726f766520746f2063616c6c657200000000000000600082015250565b7f4552433732313a206f70657261746f7220717565727920666f72206e6f6e657860008201527f697374656e7420746f6b656e0000000000000000000000000000000000000000602082015250565b7f226465736372697074696f6e223a202200000000000000000000000000000000600082015250565b7f4552433732313a20617070726f76652063616c6c6572206973206e6f74206f7760008201527f6e6572206e6f7220617070726f76656420666f7220616c6c0000000000000000602082015250565b7f2200000000000000000000000000000000000000000000000000000000000000600082015250565b7f4552433732313a2062616c616e636520717565727920666f7220746865207a6560008201527f726f206164647265737300000000000000000000000000000000000000000000602082015250565b7f4552433732313a206f776e657220717565727920666f72206e6f6e657869737460008201527f656e7420746f6b656e0000000000000000000000000000000000000000000000602082015250565b7f4552433732313a206d696e7420746f20746865207a65726f2061646472657373600082015250565b7f7d00000000000000000000000000000000000000000000000000000000000000600082015250565b7f4552433732313a20617070726f76656420717565727920666f72206e6f6e657860008201527f697374656e7420746f6b656e0000000000000000000000000000000000000000602082015250565b7f226e616d65223a20225a6b7548774e6674202300000000000000000000000000600082015250565b7f4552433732314d657461646174613a2055524920717565727920666f72206e6f60008201527f6e6578697374656e7420746f6b656e0000000000000000000000000000000000602082015250565b7f7b00000000000000000000000000000000000000000000000000000000000000600082015250565b7f55524920736574206f66206e6f6e6578697374656e7420746f6b656e00000000600082015250565b7f616c726561647920696e20746865206d65726b6c652074726565000000000000600082015250565b7f4552433732313a20617070726f76616c20746f2063757272656e74206f776e6560008201527f7200000000000000000000000000000000000000000000000000000000000000602082015250565b7f646174613a6170706c69636174696f6e2f6a736f6e3b6261736536342c000000600082015250565b7f4552433732313a207472616e736665722063616c6c6572206973206e6f74206f60008201527f776e6572206e6f7220617070726f766564000000000000000000000000000000602082015250565b61344881612c08565b811461345357600080fd5b50565b61345f81612c1a565b811461346a57600080fd5b50565b61347681612c30565b811461348157600080fd5b50565b61348d81612c7c565b811461349857600080fd5b50565b6134a481612c86565b81146134af57600080fd5b5056fe4142434445464748494a4b4c4d4e4f505152535455565758595a6162636465666768696a6b6c6d6e6f707172737475767778797a303132333435363738392b2fa2646970667358221220dde1dfb4225313dee057117f226c88d91deebfc475e02fa694bc4a11473505cb64736f6c63430008040033",
    "linkReferences": {},
    "deployedLinkReferences": {}
}